:020000040800F2
:10000000600600200D020008490200084B020008AB
:100010004D0200084F0200085102000800000000D5
:100020000000000000000000000000005302000873
:10003000550200080000000057020008590200089D
:100040005B0200085B0200085B0200085B0200081C
:100050005B0200085B0200085B0200085B0200080C
:100060005B0200080D0300085B0200085B02000849
:100070005B0200085B0200085B0200085B020008EC
:100080005B0200085B0200085B0200085B020008DC
:100090005B0200085B0200085B0200085B020008CC
:1000A0005B0200085B0200085B0200085B020008BC
:1000B0005B0200085B0200085B0200085B020008AC
:1000C0005B0200085B0200085B0200085B0200089C
:1000D0005B0200085B0200085B0200085B0200088C
:1000E0005B0200085B0200085B0200085B0200087C
:1000F0005B0200085B0200085B0200085B0200086C
:100100005B0200085B0200085B0200085B0200085B
:100110005B0200085B0200085B0200085B0200084B
:100120005B0200085B0200085B0200085B0200083B
:100130005B0200085B0200085B0200085B0200082B
:100140005B0200085B0200085B0200085B0200081B
:100150005B0200085B0200085B0200085B0200080B
:100160005B0200085B0200085B0200085B020008FB
:100170005B0200085B0200085B0200080000000050
:100180005B0200085B02000800F002F800F02EF8A5
:100190000AA090E8000C82448344AAF10107DA45E2
:1001A00001D100F023F8AFF2090EBAE80F0013F006
:1001B000010F18BFFB1A43F001031847F4020000B7
:1001C000040300000023002400250026103A28BF65
:1001D00078C1FBD8520728BF30C148BF0B607047B9
:1001E0001FB500F05FF91FBD10B510BD00F053F84A
:1001F0001146FFF7F5FF00F02BF900F071F803B49A
:10020000FFF7F2FF03BC00F079F800001648174929
:10021000174B99423CBF50F8042B41F8042BF8D3FC
:1002200014494FF000028B4238BF43F8042BFAD335
:10023000DFF84400016841F470010160BFF34F8FA3
:10024000BFF36F8F0D480047FEE7FEE7FEE7FEE7CE
:10025000FEE7FEE7FEE7FEE7FEE7FEE7084809499E
:10026000094A0A4B70470000C00400080000002043
:10027000000000206006002088ED00E089010008F1
:100280006000002060060020600200206002002064
:10029000704770477047754600F02CF8AE46050071
:1002A0006946534620F00700854618B020B5FFF791
:1002B000D5FFBDE820404FF000064FF000074FF09B
:1002C00000084FF0000B21F00701AC46ACE8C00974
:1002D000ACE8C009ACE8C009ACE8C0098D4670477D
:1002E00010B50446AFF300802046BDE81040FFF78C
:1002F00086BF000000487047000000200149182018
:10030000ABBEFEE726000200704700000BE0094884
:10031000406940F48070074948610748006840F030
:100320000800054908600448006800F0080000283B
:10033000EDD1704700100048140401400848C06C1B
:1003400040F002000649C8640846C06C40F0100046
:10035000C8640846C06C40F00100C86470470000E3
:10036000001002403548006820F030003349086032
:100370000846006840F0100008603148006820F42A
:1003800040302F4908600846006840F4803008601B
:100390002A48001D006820F004002849091D086053
:1003A0002748406820F480702549486023480C3075
:1003B000006820F0300021490C3108602048C068F6
:1003C00020F440301E49C8604FF09040006820F093
:1003D000FF004FF0904108600846C06820F0FF0021
:1003E000C8600846C06840F08000C860092001214C
:1003F00081404209920002F1E022C2F8001100BFE0
:100400001048006E40F001000E4908660E488068F2
:1004100020F4E0400C4988600846806888600B48FA
:10042000006840F008000949086008480830006882
:1004300040F0080005490831086070470004004892
:10044000001000480010024000000140000401407C
:10045000002324E0FFF772FFFFF784FF10480068D5
:1004600040F004000E49086041F28830834204DA0B
:100470000846006820F00C00086041F28830834292
:1004800005DD0748006840F004000549086042F2B5
:100490001070834200D10023FFF738FF5B1CD9E7BF
:1004A000140400484FF04070E1EE100A704700005D
:1004B000C00400080000002060060000C40100081D
:040000050800018965
:00000001FF
